:020000040800F2
:10000000C0060020450100082D28000855250008DD
:100010002B2800080D24000891350008000000007E
:10002000000000000000000000000000B5290008EA
:100030000F24000800000000A9280008792A000801
:100040005F0100085F0100085F0100085F01000810
:100050005F0100085F0100085F0100085F01000800
:100060005F0100085F0100085F0100085F010008F0
:100070005F0100085F0100085F0100085F010008E0
:100080005F0100085F0100085F0100085F010008D0
:100090005F0100085F0100085F0100085F010008C0
:1000A0005F0100085F0100085F0100085F010008B0
:1000B0005F0100085F0100085F0100085F010008A0
:1000C0005F0100085F0100085F0100085F01000890
:1000D0005F010008713200080D3300085F0100085D
:1000E0005F0100085F0100085F0100085F01000870
:1000F0005F0100085F0100085F0100085F01000860
:100100005F0100085F0100085F0100085F0100084F
:100110005F0100085F010008B52B00085F010008BF
:100120005F0100085F0100085F0100085F0100082F
:10013000DFF80CD000F0B2FC004800470153000883
:10014000C00600200648804706480047FEE7FEE755
:10015000FEE7FEE7FEE7FEE7FEE7FEE7FEE7FEE777
:100160007D2A0008310100082DE9F0410024061B1A
:10017000254671F1000605DA01240027D0EB0700BF
:1001800067EB0101161E73F1000605DA0027D2EBBA
:100190000702012567EB030300F08AFB86460E4643
:1001A00017469C46AC4204D00025D0EB050E65EB0B
:1001B000010624B10020D2EB000760EB030C70466F
:1001C00031463A466346BDE8F081D2B201E000F81C
:1001D000012B491EFBD270470022F6E710B51346EB
:1001E0000A4604461946FFF7F0FF204610BD30B519
:1001F00004460020034600E05B1C934203D2E05C0F
:10020000CD5C401BF8D030BDF0B480EA0102D40FC1
:100210004200B2EB410F02D20246084611464A00A4
:1002200042D0C30DDDB2C1F3C752AD1A202D35DA6D
:10023000C1F3160141F4000204B15242C5F1200697
:1002400002FA06F12A411044B3EBD05F23D0C4B1C7
:10025000012DA0EBC35009DCF0BC4FF0004202EAD4
:10026000C352DBB200F5000000F08DBB400000F18E
:10027000807000EBC350A0F1807040EAD17049005B
:1002800009E0490841EAC071A0EBC35000F5000045
:10029000400800EBC350F0BC00F06CBB614201228F
:1002A00002EB4101001BF6E7F0BC704781F0004112
:1002B000AAE780F00040A7E780EA010210B502F04B
:1002C0000043400022D04A001FD0010E01EB126112
:1002D000C0F35600C2F3560240F4000042F400029C
:1002E000A0FB022000047F39140400D0401C50EA17
:1002F000124001D44000491EC2B20C0604EBD010DB
:10030000401C4008802A02D003E0002010BD20F0ED
:100310000100002900DA0020184310BD30B480EA43
:10032000010202F0004530F0004221F0004013D0FD
:1003300090B1C30DD40DC2F31601C0F31600E41A38
:1003400041F4000140F400027D34914201D3641C69
:1003500000E04900002C02DA30BC002070474FF466
:1003600000000023914201D3891A034340084FEA59
:100370004101F7D151B1914202D14FF0004105E066
:1003800002D24FF0010101E06FF0010103EBC45014
:10039000284430BC00F0EEBA420005D0C0F3C7528A
:1003A0005242914201DC0020704700EBC15070477F
:1003B0002DE9FE4F804681EA0300C00F0C460090F5
:1003C00021F0004123F00045B8EB0200A94105D21D
:1003D0004046214690461C460B46024623F000400C
:1003E000104347D0270DC7F30A00C3F30A51029008
:1003F000401A019040286BDAC3F3130040F4801BCD
:100400000098924620B10023D2EB030A63EB0B0B5A
:1004100001985946C0F14002504600F07AFA06466B
:100420000D4650465946019A00F092FA10EB08002A
:100430006141002487EA115284EAE7731A4340D0ED
:10044000009A62B3019A012A4FEA075215DC001B99
:1004500061EB02014FF0004202EA0752CDE900428F
:10046000001C41F5801132462B4600F0C9FA03B05A
:10047000BDE8F08F40462146F9E7001B61EB020121
:10048000001C41F5801300185B412018A2F50017ED
:1004900047EB030140EAD570B6196D4111E06D08D4
:1004A0004FEA360645EAC0754FEA0752001B61EB7A
:1004B0000201001C41F5801149084FEA3000001983
:1004C000514132462B4603B0BDE8F04F00F089BAE7
:1004D0000098012240000023D0EB020263EBE0739E
:1004E000009821464FEAE074B8EB000061EB04018C
:1004F000E9E783F000435BE781F0004158E72DE92D
:10050000FE4F81EA030404F0004421F0004100940E
:100510004FF0000B23F0004350EA01045ED052EA92
:1005200003045BD0C3F30A54C1F30A552C44A4F26C
:10053000F3340194A0FB0254C1F3130141F4801180
:10054000C3F3130343F4801301FB024400FB034E87
:10055000840A970A44EA815447EA8357A4FB076850
:1005600002958D0A05FB07854FEA932C04FB0C547A
:100570002705029D4FEA065847EA1637B5EB0805EE
:100580006EEB070C870E920E47EA811742EA831240
:10059000A7FB0201B6EB0B0164EB00042B0D43EA51
:1005A0000C335E1844EB1C50DA465146E7FB02015F
:1005B000C5F313044FEA0B3343EA14534FEA0432F2
:1005C000019C43EA0603A4F10C040294009CCDE9CB
:1005D00000B400F015FA03B0BDE8F08F002001462A
:1005E000F9E72DE9F04D81EA030404F0004B21F016
:1005F000004514464FF0000A23F0004150EA05027E
:1006000020D054EA01021DD0C5F30A570246C5F3B3
:100610001303C1F31300C1F30A5640F4801543F4E9
:100620008013A7EB0608101BD64608F2FD3873EBC3
:10063000050002D308F1010801E092185B41B8F10E
:10064000000F03DA00200146BDE8F08D00204FF4D2
:100650008011064684460EE0171B73EB050705D391
:10066000121B63EB050306434CEA010C49084FEAF1
:10067000300092185B4150EA0107EDD152EA0300C5
:1006800012D082EA040083EA0501084305D0101B5A
:10069000AB4106D20122002306E000224FF00043C6
:1006A00002E06FF0010253101AEB06004CEB085108
:1006B00010EB0A0041EB0B01BDE8F04D00F091B9E1
:1006C00070B521F0004303430CD0C1F30A55002458
:1006D000D5EB040564EB0403D617AD1AB34102DB76
:1006E0000020014670BD201841EB025170BDC10FC2
:1006F00080EAE0700844CA079623002100F043B95D
:1007000096230022114600F03EB90EB5C10F80EAD3
:10071000E0700844CA07002140F233438DE80E0020
:100720000A460B4600F06CF903B000BD00F0004231
:1007300020F00040C10DC0F3160040F400007F29F6
:1007400001DA00207047962903DCC1F19601C84008
:1007500001E096398840002AF4D04042704720F0EA
:100760000040C10DC0F3160040F400007F2901DAFB
:1007700000207047962903DCC1F19601C8407047FC
:1007800096398840704770B5C1F30A5201F00045B0
:100790000024C1F3130140F2FF3341F480119A4267
:1007A00001DA002070BD40F233439A42A2F2334294
:1007B00003DC524200F0BCF800E090402C43F1D042
:1007C000404270BD00F0004230F000400AD0C10D40
:1007D00001F56071C0F3160042EA0151C2084007FA
:1007E00011437047002001467047000030B5041ED9
:1007F00071F1000404DB4FF00044404264EB01015E
:10080000141E73F1000405DB1C464FF000435242F6
:1008100063EB04038B4208BF824230BD30B5041E37
:1008200071F1000404DB4FF00044404264EB01012D
:10083000141E73F1000405DB1C464FF000435242C6
:1008400063EB0403994208BF904230BD01F00043BE
:1008500030B421F0004150EA010206D00A0DA2F5A1
:100860006072C1F31301002A02DC30BC0020704723
:10087000440F44EAC104C100E01830BC00EBC25090
:1008800000F078B830B50B46014600202022012444
:1008900009E021FA02F59D4205D303FA02F5491B4E
:1008A00004FA02F52844151EA2F10102F1DC30BD64
:1008B0002DE9F05F0546002092469B468846064695
:1008C000814640241BE0284641464746224600F028
:1008D0002FF853465A46C01A914110D31146184674
:1008E000224600F016F82D1A67EB01084F46224603
:1008F0000120002100F00DF817EB00094E41201EE9
:10090000A4F10104DFDC484631462A464346BDE8EF
:10091000F09F202A04DB203A00FA02F10020704701
:100920009140C2F1200320FA03F31943904070472D
:10093000202A04DB203A21FA02F00021704721FA34
:1009400002F3D040C2F1200291400843194670479B
:10095000202A06DBCB17203A41FA02F043EAE07383
:1009600006E041FA02F3D040C2F120029140084370
:10097000194670470029A8BF7047401C490008BFAE
:1009800020F00100704710B4B0FA80FC00FA0CF0BF
:1009900050EA010404BF10BC704749B1CCF12004F7
:1009A00021FA04F411FA0CF118BF01212143084384
:1009B000A3EB0C01CB1D4FEA00614FEA102042BFB0
:1009C000002010BC704700EBC35010440029A4BFA6
:1009D00010BC7047401C490008BF20F0010010BC4B
:1009E000704710B5141E73F1000408DA401C41F181
:1009F000000192185B411A4301D120F0010010BDA3
:100A00002DE9F04D92469B4611B1B1FA81F202E018
:100A1000B0FA80F220329046FFF77BFF04460F4683
:100A200040EA0A0041EA0B0153465A46084313D0F4
:100A3000114653EA010019D0C8F140025046FFF7B1
:100A400077FF05460E46504659464246FFF761FF7E
:100A5000084305D0012004E020463946BDE8F08D6A
:100A60000020054346EAE0762C4337430A986305A5
:100A7000E40AA0EB08000022FD0A44EA47540A30C9
:100A800002D500200146E9E7010510196941DDE9B9
:100A9000084500196941BDE8F04DA2E7064C074D35
:100AA00006E0E06840F0010394E80700984710343E
:100AB000AC42F6D3FFF740FB78700008987000084E
:100AC0002DE9F04D00231A461B1A8A4103DB002052
:100AD0000146BDE8F08DC1F30A52C1F3130141F4A0
:100AE00080154FF0000BD10702D100186D41521E46
:100AF0000027044640F2FF11384601EB620A3E46E9
:100B00008046024600204FF48011FFF711FFC21902
:100B10007141BB1846EB0100B4EB030C75EB000C04
:100B200004D3E41A65EB000517460E46241908F1B4
:100B300001006D4180463428E3DDF91946EB0600DB
:100B4000091BA84103D24FF0FF32134601E00022F7
:100B500013461BEB070046EB0A51BDE8F04DFFF7CB
:100B600040BF0EB540F2334102910021CDE90011A2
:100B70000A460B46FFF744FF03B000BD0029816819
:100B800002D041F0010101E021F0010181607047D4
:100B9000014600208968490700D501207047C06CD4
:100BA00080B270470246002012680A4200D001203D
:100BB0007047014600208968090700D50120704769
:100BC00010B542680E4B0C791A400B6842EA0422B9
:100BD0001343436082680B4B1A40D1E9024323431D
:100BE0004C7942EA440213438360C26A097C22F4CE
:100BF0007002491EC9B242EA0151C16210BD000033
:100C0000FFFEF0FFFDF7F1FF70B5072609290AD9AD
:100C1000C568A1F10A0404EB4404A640B543A3400F
:100C20001D43C56007E0056901EB4104A640B543DB
:100C3000A3401D4305611F23072A09D2446B521E9E
:100C400002EB820293409C4391400C43446370BD8D
:100C50000D2A09D2046BD21F02EB820293409C43FF
:100C600091400C43046370BDC46A0D3A02EB8202EA
:100C700093409C4391400C43C46270BD816841F035
:100C80000801816070470029816802D041F4A00109
:100C900001E021F4A00181607047816841F0040106
:100CA000816070476FF0040001F0DABE70B54FF458
:100CB000FA76B0FBF6F1CCB2B0FBF6F106FB11050B
:100CC00004E0304601F0A4FB641EE4B2002CF8D12D
:100CD000002D04D02846BDE8704001F099BB70BDDE
:100CE0004FF0E02100EBC000486100238B610869F0
:100CF00040F0010008610869C20701D0C003FAD5BD
:100D0000086920F0010008618B6170474FF0804056
:100D100002F05DB870B5054688B001210D2001F0E4
:100D2000E7FD0121234801F0D9FB0820ADF80C00B4
:100D300004208DF80F0003208DF80E0003A91E4833
:100D400001F07DFB4FF40040ADF80C0003A91B48F7
:100D500001F075FB0121084601F0B2FD4FF080461D
:100D6000304601F063FF684602F078FA0024ADF8DF
:100D70000040ADF80450ADF80640ADF802406946B9
:100D8000304602F01DFA00231A460321304602F0D5
:100D900005F804A802F0C0F80620ADF8180004A970
:100DA000304602F023F8B4840121304601F028FFD8
:100DB00008B070BD00031800000C0140000801409D
:100DC0004FF0804188847047014802F000B800006D
:100DD0000004004070B5054688B00121092001F0EB
:100DE00087FD3020ADF8180004208DF81B0003208B
:100DF0008DF81A0006A91C4801F021FB01210220F0
:100E000001F05EFD0121194801F068FB184E3046E3
:100E100001F00CFF684602F021FA0024ADF8004012
:100E2000ADF80450ADF80640ADF8024069463046D2
:100E300002F0C6F900231A460321304601F0AEFF46
:100E400003A802F069F80620ADF8140003A93046A3
:100E500001F0CCFF0648243004800121304601F027
:100E6000CFFE08B070BD0000000C014000081A0061
:100E7000000400400149088070470000240400403D
:100E8000014801F0A4BF00000008004070B505460D
:100E900088B00121082001F02BFDC020ADF818001A
:100EA00004208DF81B0003208DF81A0006A91A48AB
:100EB00001F0C5FA0121042001F002FD174E304671
:100EC00001F0B4FE684602F0C9F90024ADF8004014
:100ED000ADF80450ADF80640ADF802406946304622
:100EE00002F06EF900231A460321304601F056FF46
:100EF00003A802F011F80620ADF8140003A930464B
:100F000001F074FF0548243004800121304601F0CF
:100F100077FE08B070BD0000000C014000080040E2
:100F2000014908807047000024080040014801F092
:100F30004EBF0000000C004070B5054688B001218E
:100F4000042001F0D5FC0321ADF8181004208DF821
:100F50001B008DF81A1006A9194801F070FA01213A
:100F6000082001F0ADFC174E304601F05FFE6846E8
:100F700002F074F90024ADF80040ADF80450ADF86B
:100F80000640ADF802406946304602F019F90023E8
:100F90001A460321304601F001FF03A801F0BCFF0F
:100FA0000620ADF8140003A9304601F01FFF0548E4
:100FB000243004800121304601F022FE08B070BDCB
:100FC00000080140000C0040014908807047000003
:100FD000240C004041060748826942F00102826108
:100FE0000548426822F0E062426042680A4342607B
:100FF0007047000000100240000001402DE9F84F4A
:101000000C460188BB4E4942DFF8F48231804188AA
:1010100071808188DFF8E0A24942B180C088DFF8A2
:10102000DC92F080002508F1100736F91500FFF773
:101030006CFB00224B46FFF7D9FB0CD258F8250079
:10104000FFF763FB00225346FFF7E8FB03D257F894
:101050002500401C16E036F91500FFF756FB00226C
:101060005346FFF7DBFB0CD258F82500FFF74DFB8A
:1010700000224B46FFF7BAFB03D257F82500401E6B
:1010800000E0002047F825006D1C042DCDDB9948B9
:1010900000252038D0E9028081469648984F30F9E3
:1010A0001560974857F82510103050F82500C0EB10
:1010B00000403044401AFFF728FB42464B46FFF7FA
:1010C00090FA07F1300202EBC502DFF838A2C2E95C
:1010D000000147F82560DFF830B26D1C042DDCDB21
:1010E00007F13008D8E90467D8E9060132463B46E3
:1010F000FFF7FFF94FF0FF394A46FFF7E1FA08F131
:101100002005C5E90001D8E9002330463946FFF73C
:10111000F0F94A46FFF7D4FAC5E902017548012102
:1011200020380068FFF738F9FFF74CFB0090D8E94A
:101130000223894630463946FFF73AF94B46009A72
:10114000FFF74FFAC5E9040104F0CCFFD5E902230B
:10115000FFF7D5F906460F46D5E9040103F066F915
:10116000D5E90023FFF7CBF932463B46FFF7C1F93B
:1011700005F11806C6E90001D5E9040103F056F9A6
:10118000D5E90223FFF7BBF980460F46D5E90401F4
:1011900004F0A8FFD5E9002381F00041FFF7AFF983
:1011A00042463B46FFF7A5F9C6E90201B4F904003F
:1011B000FFF7ABFA00225346FFF713FA04F092FF51
:1011C000D6E90223FFF79BF907468846B4F90400E5
:1011D000FFF79BFA00225346FFF703FA03F026F9C4
:1011E000D6E90023FFF78BF93A464346FFF781F92A
:1011F00000225346FFF783F9FFF7C5FA2188084418
:101200002080B4F90400FFF780FA00225346FFF76C
:10121000E8F903F00BF9D6E90223FFF770F98046ED
:101220000F46B4F90400FFF770FA00225346FFF7A7
:10123000D8F904F057FFD6E90023FFF760F94246DA
:101240003B46FFF7B5F800225346FFF758F9FFF782
:101250009AFA6188002208446080D5E90401534667
:10126000FFF74DF9FFF78FFAA188084400B2A0807C
:10127000FFF74BFA5E465A46244BFFF7CFFAB4F914
:10128000040006D2FFF741FA3246214BFFF731F94D
:101290000EE0FFF73AFA32461E4BFFF7A7FA0AD2E2
:1012A000B4F90400FFF731FA3246194BFFF780F822
:1012B000FFF769FAA080D5E900010022564653469F
:1012C000FFF71DF9FFF75FFAE080D5E90201002280
:1012D000114BFFF714F9FFF756FA2081D5E9040105
:1012E00000223346FFF70BF9FFF74DFA6081BDE8A6
:1012F000F88F0000500000204099C940C099C9C033
:101300007001002000408F40386744692F8BA8404F
:101310002F8BB8402F8BA8C000408FC02DE9F04123
:101320000746B0F90000FFF7E2F9DFF868804146B0
:10133000FEF7F4FFFFF746FA174C05460E46C4E9E0
:101340000401B7F90200FFF7D2F94146FEF7E6FFC4
:10135000FFF738FAC4E9060102460B460F48104968
:10136000FFF73FF9FFF772FA0E492060002008806E
:10137000488088800C4A0D4B28463146FFF7BFF85D
:1013800002460B4600200A49FFF72BF9C4E9020187
:10139000BDE8F08100007A4430000020E02D90A0EC
:1013A000F831CE3F14010020A1F36BD629FAD93FC2
:1013B000008096402DE9F05F05460C46B0F900002C
:1013C000FFF795F93B4F3946FEF7A8FF8046B5F980
:1013D0000200FFF78CF93946FEF7A0FF0646B5F983
:1013E0000400FFF784F93946FEF798FF324D0146B5
:1013F0002868FEF761FF8246574631464046FEF7B1
:1014000055FF83463946FEF751FF2C4F8146414632
:1014100038603046FEF7F8FE06465146FEF7F4FE09
:101420008046786051463046FEF740FF0646B86079
:1014300051465846FEF7E8FEF86007464846FFF773
:10144000C1F9D5E90223FFF75AF8DFF874900022BA
:101450004B46FFF7C6F8FFF796F920804046FFF7A6
:10146000B1F9D5E90223FFF74AF800224B46FFF70E
:10147000B8F8FFF788F960803046FFF7A3F9D5E99F
:101480000223FFF73CF800224B46FFF7AAF8FFF7CC
:101490007AF9A0803846FFF795F9D5E90223FFF7DE
:1014A0002EF800224B46FFF79CF8FFF76CF9E0801E
:1014B000BDE8F09F00007A44300000209001002039
:1014C00000004940F8B50121242001F011FA042060
:1014D000ADF8000010208DF8030003200B4D8DF8AF
:1014E00002006946284600F0AAFF094EAC15ADF887
:1014F00000406946304600F0A2FF0421284601F072
:1015000022F82146304601F01EF8F8BD00140140D3
:101510000008014070B5164D041E09DD1021284653
:1015200001F00FF82021284601F00DF8A1B20AE0E1
:1015300013DA2021284601F004F81021284601F092
:1015400002F8604281B24FF4FA60814200D901464C
:10155000BDE87040074801F0FFBD1021284600F0AB
:10156000F0FF2021284600F0ECFF0021F0E700000A
:10157000001001400034014070B5164D041E09DD15
:101580000421284600F0DDFF0821284600F0DBFF9B
:10159000A1B20AE013DA0821284600F0D2FF0421A4
:1015A000284600F0D0FF604281B24FF4FA608142D9
:1015B00000D90146BDE87040074801F0CFBD0421C5
:1015C000284600F0BEFF0821284600F0BAFF00219F
:1015D000F0E70000001001400034014070B5164DE6
:1015E000041E09DD0221284600F0ABFF0121284638
:1015F00000F0A9FFA1B20AE013DA0121284600F0A9
:10160000A0FF0221284600F09EFF604281B24FF405
:10161000FA60814200D90146BDE87040074801F0F8
:101620009FBD0221284600F08CFF0121284600F0D2
:1016300088FF0021F0E70000001001400034014065
:101640002DE9F041174D041E4FF400664FF480570A
:1016500009DD3146284600F074FF3946284600F07F
:1016600072FFA1B20AE013DA3946284600F069FF9A
:101670003146284600F067FF604281B24FF4FA60BD
:10168000814200D90146BDE8F041074801F06ABD3A
:101690003146284600F055FF3946284600F051FFF4
:1016A0000021F0E7000801400034014070B5044615
:1016B00088B00121112001F01BF94FF47070ADF8D2
:1016C000000018208DF80300414E03258DF80250CC
:1016D0006946304600F0B3FE0121142001F008F9FC
:1016E0003020ADF8000010208DF803008DF8025076
:1016F0006946304600F0A3FE0C20ADF800006946B4
:10170000304600F09CFEADF800506946304600F0CF
:1017100096FEE802ADF8000069462E4800F08FFE04
:10172000002C52D0142C00D914240121480301F0BC
:10173000DFF840F2CF70ADF818002420B0FBF4F0D1
:10174000401EADF814000024234DADF81A40ADF84A
:10175000164005A9284601F033FD6020ADF80400CD
:101760000120ADF80600ADF80A40ADF80C4001A923
:10177000284601F0E1FB0821284601F01DFC01A9E3
:10178000284601F01FFC0821284601F05BFC01A956
:10179000284601F061FC0821284601F09BFC01A9C4
:1017A000284601F09DFC0821284601F0CBFC0121D0
:1017B000284601F015FA0121284601F021FA0121FD
:1017C000284601F027FA08B070BD0124ADE70000FB
:1017D0000010014000080140003401402DE9F04FA5
:1017E00089B0054608A8734CCDE9004007AB02AAB2
:1017F000A91D284602F0B8FF2088C0057ED50298B2
:10180000FEF775FF6FF01D073946FEF7C5FD8046F0
:1018100060600398FEF76BFF3946FEF7BDFD814619
:10182000A0600498FEF763FF3946FEF7B5FD064653
:10183000E0600598FEF75BFF3946FEF7ADFD074611
:10184000206101214046FEF7A7FD3146FEF734FD39
:1018500006464FF0404841464846FEF72DFD3946C2
:10186000FEF72AFD3146FEF7CFFCFEF7ABFF02F094
:10187000D5FADFF844A14FF066394A465346FEF7E1
:101880003EFEFEF7E3FF6061E06801210646FEF7D9
:1018900083FD83463146FEF70FFD0646A0684146AC
:1018A0008046FEF709FD4146FEF706FD3146FEF78C
:1018B000FDFC4FF07E51FEF7A7FCFEF783FF0646C6
:1018C0000F4601216068FEF767FD4146FEF7F4FC14
:1018D000804658462169FEF7EFFC4146FEF794FC2E
:1018E000FEF770FF32463B4602F0E0FC4A465346A4
:1018F000FEF705FEFEF7AAFFA06100E056E02169B1
:1019000006910846FEF7D8FCE1688046084600913B
:10191000FEF7D2FCA168074608460191FEF7CCFC11
:10192000616806468B465846FEF7C6FC3146FEF710
:101930006BFC3946FEF7BAFC4146FEF7B7FCFEF7F2
:1019400041FF06460F4658460699FEF7B5FC80460D
:10195000DDE90010FEF7B0FC4146FEF755FC012121
:10196000FEF71AFDFEF72EFF32463B4602F09EFCC4
:101970004A465346FEF7C3FDFEF768FF0F4F064683
:10198000E0613946A069FEF797FCFEF7CFFEA8811B
:1019900039466069FEF790FCFEF7C8FEE8813946DB
:1019A0003046FEF789FCFEF7C1FE288209B0BDE88B
:1019B000F08F0000A000002066A64C400000C84246
:1019C00070B503F0E5FD00285AD1782004F09CFAA8
:1019D00010F0FF0F02D02BA001F0DCFD782003F007
:1019E00007FD10F0FF0F02D02CA001F0D3FD642002
:1019F00004F04EFA10F0FF0F02D02FA001F0CAFD44
:101A000002F0A8FE10F0FF0F02D032A001F0C2FDDC
:101A10003A48044603F050FC0546E01C03F04CFC39
:101A200045EAC005A01D03F047FC45EA801080B2DE
:101A300003F042F810F0FF0F02D031A001F0AAFD30
:101A400040F2731002F05EFD10F0FF0F02D033A0E1
:101A500001F0A0FD642002F097FF10F0FF0F02D00C
:101A600035A001F097FD04F0D6FA012004F036F914
:101A700010F0FF0F04D0BDE8704036A001F08ABD21
:101A800070BD00006D70755F7365745F73656E7314
:101A90006F72206572726F720D0A00006D70755F53
:101AA000636F6E6669677572655F6669666F2065EC
:101AB00072726F720D0A00006D70755F7365745FEE
:101AC00073616D706C655F72617465206572726FB1
:101AD000720D0A00646D705F6C6F61645F6D6F748E
:101AE000696F6E5F6472697665725F6669726D7741
:101AF000617265206572726F720D0A00C00000206D
:101B0000646D705F7365745F6F7269656E74617424
:101B1000696F6E206572726F720D0A00646D705F7E
:101B2000656E61626C655F6665617475726520657E
:101B300072726F720D0A0000646D705F7365745F7E
:101B40006669666F5F72617465206572726F722E6E
:101B50000D0A00006D70755F7365745F646D705F72
:101B60007374617465206572726F722E0D0A0000C5
:101B700008B50121082000F0BBFE4FF44070ADF81D
:101B8000000010208DF8030003208DF80200694644
:101B9000124800F054FC12480121C0F8A011C0F80E
:101BA000A41100216B2000F038FE18211B2000F04A
:101BB00034FE00211C2000F030FE8021372000F090
:101BC0002CFE01216B2000F028FE00216C2000F08B
:101BD00024FEBDE808406420FFF768B8000C01400F
:101BE000008021422DE9F041254D441A4FF47A71CD
:101BF000A8692044A861884202DC4942884200DA90
:101C0000A961B5F90200A9694843FEF770FDDFF844
:101C100074804146FEF750FB07466869B5F9041029
:101C2000201A4843FEF763FD4146FEF745FB064692
:101C3000B5F900006043FEF75AFD4146FEF73CFB54
:101C40003146FEF7E1FA3946FEF7DEFA0646B5F907
:101C50000600FEF74CFD3146FEF7D6FAFEF766FDAC
:101C600000B2E8804FF4FA616C61884202DC4942BC
:101C7000884200DAE980B5F90600BDE8F08100008D
:101C8000580000200AD7233C2DE9F041254D441A85
:101C90004FF47A71686A20446862884202DC4942E3
:101CA000884200DA6962B5F90200696A4843FEF7C2
:101CB0001EFDDFF874804146FEF7FEFA0746286AEB
:101CC000B5F90410201A4843FEF711FD4146FEF70E
:101CD000F3FA0646B5F900006043FEF708FD4146F9
:101CE000FEF7EAFA3146FEF78FFA3946FEF78CFA2C
:101CF0000646B5F90800FEF7FAFC3146FEF784FA0D
:101D0000FEF714FD00B228814FF4FA612C6288427C
:101D100002DC4942884200DA2981B5F90800BDE8B1
:101D2000F0810000580000200AD7233C2DE9F04143
:101D3000254D441A4FF47A71286B20442863884259
:101D400002DC4942884200DA2963B5F90200296BB6
:101D50004843FEF7CCFCDFF874804146FEF7ACFA4E
:101D60000746E86AB5F90410201A4843FEF7BFFC9D
:101D70004146FEF7A1FA0646B5F900006043FEF7BA
:101D8000B6FC4146FEF798FA3146FEF73DFA394671
:101D9000FEF73AFA0646B5F90A00FEF7A8FC314606
:101DA000FEF732FAFEF7C2FC00B268814FF4FA6126
:101DB000EC62884202DC4942884200DA6981B5F966
:101DC0000A00BDE8F0810000580000200AD7233C3B
:101DD0002DE9F041254D441A4FF47A71E86B204407
:101DE000E863884202DC4942884200DAE963B5F9D7
:101DF0000200E96B4843FEF77AFCDFF87480414645
:101E0000FEF75AFA0746A86BB5F90410201A4843A2
:101E1000FEF76DFC4146FEF74FFA0646B5F90000A5
:101E20006043FEF764FC4146FEF746FA3146FEF792
:101E3000EBF93946FEF7E8F90646B5F90C00FEF76E
:101E400056FC3146FEF7E0F9FEF770FC00B2A881BF
:101E50004FF4FA61AC63884202DC4942884200DAFE
:101E6000A981B5F90C00BDE8F08100005800002000
:101E70000AD7233C70B500F067FA1E4C40F21A41B5
:101E80001D4D884260804FF0040128462ED200F09C
:101E900051FBC0F10100C2B20421284600F055FBFD
:101EA000608840F2DE3188421DD22088401C80B21A
:101EB0002080C82819D90421284600F042FBA91522
:101EC0000E4800F040FB0020FFF724FB0020FFF746
:101ED00053FB0020FFF782FB0020FFF7B1FB6420DB
:101EE000FEF7E4FEFBE70020208070BDBDE87040F7
:101EF00000F029BB00000020001401400008014050
:101F000070B5FEF703FF354C47F23055281A208094
:101F1000FEF75AFF401B6080FEF7B2FF281AA08030
:101F2000FFF704F8401BE0802846FEF749FF2846EB
:101F3000FEF7A0FF2846FEF7F3FF2846FFF744F818
:101F4000A4F1080022880188114401804188628838
:101F5000114441808188A28811448180C188E2882F
:101F60001144C1801E49FFF749F8A4F11001881FF0
:101F7000FFF720FAA4F11006B4F90010B6F900003A
:101F8000FFF730FE04F108052880B4F90210B6F915
:101F90000200FFF779FE6880B4F90410B6F9040076
:101FA000FFF7C4FEA880B4F90610B6F90600FFF7E3
:101FB0000FFFE8802888404200B2FFF7ABFA68883C
:101FC000404200B2FFF7D8FAB5F90400FFF706FB6C
:101FD000B5F90600BDE87040FFF732BB1A000020DB
:101FE000140100203E49A1F13C000A88130A037045
:101FF00042704A88130A8370C2708A88130A037178
:102000004271CA88130A8371C2710A89130A037262
:1020100042724A89130A8372C2728A89130A03734D
:102020004273CA89130A8373C273098A0A0A027443
:102030004174A0F10C010A88130A8374C2744A889F
:10204000130A037542758A88130A8375C275CA8894
:10205000130A037642760A89130A8376C27649897F
:102060000A0A02771F4A417711880B0A8377C177E2
:1020700051880B0A80F8203080F8211091880B0AD3
:1020800080F8223080F82310D1880A0A80F82420B2
:10209000144A80F82510103A11880B0A80F826306F
:1020A00080F8271051880B0A80F8283080F8291012
:1020B00091880B0A80F82A3080F82B10D1880A0A00
:1020C00080F82C2080F82D1006491A3949880A0A10
:1020D00080F82E2080F82F100622302100F0FAB868
:1020E0005C0100201A0000200448017819B1002189
:1020F0000170012070470020704700009800002008
:1021000070B5064C05460021204601F02EF8294600
:102110002046BDE8704000F073BD00000010004094
:102120001FB504460121102000F0CAFB4720641EA1
:10213000ADF80000ADF804400020124CADF80200EC
:10214000ADF806006946204601F03AF80121204624
:1021500000F050FD01221146204600F0E5FE01216D
:10216000204600F04DFD36208DF80C0002208DF841
:102170000D0001208DF80E008DF80F0003A800F06F
:1021800057FB1FBD0010004030B5044687B0012149
:10219000042000F0ADFB0121880300F0A9FB4FF4FF
:1021A0000071ADF8101018218DF8131003201E4D8A
:1021B0008DF8120004A9284600F041F92815ADF861
:1021C000100004218DF8131004A9284600F037F9F7
:1021D0000020ADF804000094ADF80600ADF808004A
:1021E000ADF80C000C20114CADF80A0069462046F1
:1021F00001F070F925218DF8141002208DF81500DA
:1022000001218DF816108DF8171005A800F010FBAD
:10221000012240F22551204601F044F901212046D7
:1022200001F010F907B030BD00080140003801404E
:1022300070B5044686B00121082000F059FB042542
:10224000ADF8105018208DF8130003201F4E8DF8A4
:10225000120004A9304600F0F2F80820ADF8100092
:102260008DF8135004A9304600F0E9F80121480424
:1022700000F026FB0020ADF804000094ADF8060045
:10228000ADF80800ADF80C000C20114CADF80A00B8
:102290006946204601F01EF926218DF8141002200F
:1022A0008DF8150001218DF816108DF8171005A86E
:1022B00000F0BEFA012240F22551204601F0F2F86A
:1022C0000121204601F0BEF806B070BD00080140B3
:1022D000004400402DE9F041002332292ED8184D4A
:1022E000AA242C7055246C704C1DAC70EA7000222E
:1022F00004E0865CAF18521C3E71D2B28A42F8D319
:10230000091DC9B2002004E02A5C401C1A44D3B263
:10231000C0B28842F8D3E6B22B540024094F0BE038
:10232000295D384601F030F94021384601F094F833
:102330000128F9D1641CE4B2B442F1D3BDE8F081C4
:10234000740200200044004010B50B4C01212046CF
:10235000FEF799FC02212046FEF724FC0028F9D064
:102360002046FEF71CFC40F62E61484340F6FF7104
:10237000B0FBF1F080B210BD0028014030B587B04D
:102380000121082000F0B4FA0125ADF81450002412
:102390008DF8174005A91B4800F051F8012188026B
:1023A00000F0A6FA4FF46020CDE902048DF8044055
:1023B00000948DF80540144C8DF810506946204665
:1023C000FEF7FEFBE80300F071FA07230122082163
:1023D0002046FEF719FC01212046FEF7CFFB2046E0
:1023E000FEF74CFC2046FEF7E4FB0028FAD120461D
:1023F000FEF753FC2046FEF7CBFB0028FAD107B0CE
:1024000030BD0000000C014000280140FEE770478D
:1024100042F2283148434FF0E021486100238B61AC
:10242000086940F0010008610869C20701D0C003D3
:10243000FAD5086920F0010008618B617047F0B59A
:10244000CC78002204F00F03E40601D58C782343F6
:102450000C784FF00F0C14F0FF0F4FF0010E1BD053
:1024600005680E880EFA02F42640A64210D19600A6
:102470000CFA06F725EA070703FA06F5CE783D437E
:10248000282E02D0482E02D002E0446100E0046110
:10249000521C082AE5D305600A88FF2A1CD9446823
:1024A000002202F108060EFA06F50E882E40AE4212
:1024B0000ED196000CFA06F7BC4303FA06F7CE7865
:1024C0003C43282E00D14561CE78482E00D10561CD
:1024D000521C082AE5D34460F0BD0000F0B5144C4E
:1024E000002801DAE36900E06368450D2E0185B23A
:1024F000C0F30157B540C0F30342032F05D0C60215
:102500000AD503269640B34307E023F07062636860
:1025100023F07063636002E0AB4343F0706201B18B
:102520002A43002801DAE261F0BD6260F0BD0000DC
:10253000000001400246002092680A4200D00120BB
:10254000704741617047016170470AB1016170478E
:1025500041617047FEE700002DE9F047DFF8A890E1
:1025600082460024D9F8001021F0F001C9F80010CB
:10257000D9F8001041F08001C9F80010234E25461B
:1025800027464FF00108C6F8A0710220FEF7A8FB0D
:10259000C6F8A0816006040ED6F8240108B1641CB8
:1025A000E4B20220FEF79CFB6D1CEDB2082DEAD3CD
:1025B000BAF1000FC6F8A071D9F80010484621F012
:1025C000F001C9F80010D9F8001041F03001C9F845
:1025D000001009D0C6F8A471012006F5D076FEF7E8
:1025E0007FFBC6F8008008E04546C6F8A4810120BC
:1025F00006F5D076FEF774FB35600120FEF770FB20
:1026000037602046BDE8F087040C0140008021427D
:102610002DE9F04105461448016821F0F001016000
:10262000016841F030010160104E0027C6F8A0712A
:102630003C464FF00108E809C6F8A4016806050EFB
:102640000120FEF74DFBC6F8A0810120FEF748FBF4
:10265000C6F8A0710120FEF743FB641CE4B2082C0D
:10266000E9D3BDE8F0810000040C01400080214264
:1026700070B51148016821F0F0010160016841F076
:10268000300101600D4C0120C4F8A401D4F82411DC
:1026900049B1C4F8A001FEF723FB0025C4F8A451FA
:1026A000D4F8240108B1002070BD0120FEF718FB0A
:1026B000C4F8A051012070BD040C014000802142EB
:1026C0000D4810B5016821F0F0010160016841F08A
:1026D00030010160094C0020C4F8A001C4F8A40135
:1026E000012004F5D074FEF7FBFA01202060606041
:1026F000BDE81040FEF7F4BA040C0140008021420E
:1027000070B513480024016821F0F00101600168F0
:1027100041F0800101600F4D0126C5F8A4613046EB
:10272000FEF7DEFAC5F8A06107E0641CE4B2322CC3
:1027300003D9FFF7C5FF002070BD0120FEF7D0FAD6
:10274000D5F824010028F0D1C5F8A001012070BD02
:10275000040C0140008021422DE9F0411D46144641
:102760000F460646FFF784FFB0B17006000EFFF774
:102770004FFFFFF7C5FF90B13846FFF749FFFFF75E
:10278000BFFFFFF775FF012000EB4600C0B2FFF767
:102790003FFFFFF7B5FF0EE00120BDE8F081FFF736
:1027A0008FFFF9E7012C0CD00120FFF7D5FE641E46
:1027B00005F8010BE4B2002CF4D1FFF781FF0020F3
:1027C000EBE70020F1E72DE9F0411D4616460C46E7
:1027D0000746FFF74DFF68B17806000EFFF718FFB8
:1027E000FFF78EFF48B12046FFF712FFFFF788FF83
:1027F00000240CE00120BDE8F081FFF761FFF9E75C
:10280000285DFFF705FFFFF77BFF10B1641CB442A2
:10281000F6DBFFF755FF0020EDE713B5014601ABEE
:1028200001226820FFF7CFFF1CBDFEE770470000C4
:1028300030B50F23C27801780125F2B1144A12682D
:1028400001F1E02102F4E062C2F5E062120AC2F195
:102850000404D3404278A24084781C4014432201EF
:1028600081F80024007800F01F018D4040098000AD
:1028700000F1E020C0F8005130BD01F01F0085409C
:102880004809800000F1E020C0F8805130BD000010
:102890000CED00E00249084302490860704700005F
:1028A0000000FA050CED00E070470000034A516893
:1028B00021F4404101435160704700000010024084
:1028C000044A0029D16901D0014300E08143D1616C
:1028D0007047000000100240044A0029116901D02D
:1028E000014300E081431161704700000010024085
:1028F000044A0029916901D0014300E081439161BC
:102900007047000000100240044A0029D16801D03D
:10291000014300E08143D160704700000010024095
:1029200030B5204A5168204B11F00C0103D0042926
:1029300001D0082901D0036012E05168536801F406
:1029400070114FF0020413F4803F04EB914102D068
:1029500053689B0301D5154B00E0134B59430160AD
:1029600051680F2303EA1111114B5C5C0168E140CF
:1029700041605468072505EA14241C5D21FA04F41B
:102980008460546805EAD4241B5DD940C160526854
:10299000032303EA9232064B1B1F9A5CB1FBF2F150
:1029A000016130BD0010024000127A0000093D00B4
:1029B000FC000020704700000CB500222648009261
:1029C0000192016841F4803101604FF4A063016815
:1029D00001F4003101910099491C0091019911B94C
:1029E00000999942F3D10168890333D501210191FE
:1029F0001A490A6842F010020A600A6822F00302CB
:102A00000A600A6842F002020A6041684160416857
:102A10004160416841F480614160416821F47C116A
:102A20004160416841F4E8114160016841F0807102
:102A3000016001688901FCD5416821F00301416012
:102A4000416841F0020141604168C1F381010229FE
:102A5000FAD10CBD01920CBD0010024000200240D2
:102A60004FF0E0210428086903D020F00400086139
:102A7000704740F00400FAE7704700000F4810B5B7
:102A8000016841F00101016041680D4A1140416057
:102A900001680C4A11400160016821F48021016045
:102AA000416821F4FE0141604FF41F018160FFF78E
:102AB00083FF05494FF00060086010BD0010024020
:102AC0000000FFF8FFFFF6FE08ED00E070B5048C93
:102AD00024F001040484058B048C4FF6FF7606EA8B
:102AE0000313134325F0F3050E4A2B4390420ED0F7
:102AF0000D4A90420BD0B0F1804F08D00B4A904263
:102B000005D00B4A904202D00A4A904202D124F0EA
:102B1000020201E024F00A020A4342F001010383A9
:102B2000018470BD002C01400034014000040040CD
:102B300000080040000C0040F0B5048C24F01004A4
:102B40000484078B048C4FF6FF7527F4734705EA5E
:102B500003333B4305EA02221A43114B05EA0116EF
:102B600098420ED00F4B98420BD0B0F1804F08D056
:102B70000D4B984205D00D4B984202D00C4B984219
:102B800005D124F02001314341F0100104E024F08C
:102B9000A0030B4343F0100102830184F0BD000049
:102BA000002C0140003401400004004000080040B7
:102BB000000C004010B5084C0121204600F009F936
:102BC000002808D005490120087001462046BDE8CC
:102BD000104000F012B810BD001000409800002016
:102BE0000029018802D041F0800101E021F080013C
:102BF00001807047C94301827047C9430182704711
:102C00000029018802D041F0010101E021F0010119
:102C100001807047002930F8441F02D041F4004180
:102C200001E0C1F30E010180704700004B4910B56F
:102C3000884202D10121C41486E0B0F1804F09D04E
:102C4000474988420DD101210220FFF745FE0021AE
:102C5000022064E001210846FFF73EFE002101202A
:102C60005DE04049884206D101210420FFF734FE8F
:102C70000021042053E03C49884206D1012108206C
:102C8000FFF72AFE0021082049E03849884206D192
:102C900001211020FFF720FE002110203FE03449E1
:102CA000884206D101212020FFF716FE00212020B6
:102CB00035E03049884202D10121441444E02E49D4
:102CC000884202D10121CC043EE02C49884202D145
:102CD00001210C0538E02A49884202D101214C0526
:102CE00032E02849884206D101214020FFF7F4FD57
:102CF0000021402013E02449884206D10121802090
:102D0000FFF7EAFD0021802009E0204988420AD12E
:102D1000841501212046FFF7DFFD00212046BDE894
:102D20001040FFF7D9BD1A49884202D101210C0495
:102D30000AE01849884202D101214C0404E01649F6
:102D400088420AD101218C042046FFF7DDFD204690
:102D5000BDE810400021FFF7D7BD10BD002C014099
:102D60000004004000080040000C0040001000403B
:102D70000014004000340140004C0140005001406C
:102D80000054014000180040001C0040002000409A
:102D900000400140004401400048014070B50589F1
:102DA000048B068C25F007050D434FF6FC410C40C3
:102DB00040F201110C434FF6FF7101EA031126F0B6
:102DC00022061143314305810483018470BD808C48
:102DD000704702460020138A92890B4202EA0102E0
:102DE00002D0002A00D00120704700002DE9F84FE2
:102DF0000D4604460888434FDFF80CC1DFF80C810C
:102E0000DFF80C914988AA882B894FF0804A48B393
:102E1000042830D04FF6FF760828934634D0208C13
:102E20009E4620F480502084A38B208C06EA013239
:102E3000009223F4734306EA0B221A4306EA0E3388
:102E40001343BC420AD0644508D0544506D04445DB
:102E500004D04C4502D02F4A944245D120F4005072
:102E6000009943E02046FFF731FEE9882046BDE89F
:102E7000F84F00F07CB92046FFF75EFEE988204657
:102E8000BDE8F84F00F07BB9208C20F480702084DE
:102E9000B4F81CE0208C06EA031306EA01222EF0A7
:102EA000F30E43EA0B0343EA0E030092BC420AD03E
:102EB000644508D0544506D0444504D04C4502D062
:102EC000144A944203D120F40070009901E020F4E8
:102ED0002060084340F48070A3832084E988204662
:102EE000BDE8F84F00F057B920F40240084340F421
:102EF0008050A3832084E9882046BDE8F84F00F085
:102F000052B90000002C0140003401400004004090
:102F100000080040000C0040002101804180012297
:102F20008280C18001817047002A828901D00A43D2
:102F300000E08A438281704730B5028C22F00102A2
:102F40000284028C8388048B22F0020224F0730531
:102F50000C882C430D8915434A882A43114DA842F9
:102F60000BD0114DA84208D0104DA84205D0104DED
:102F7000A84202D00F4DA8420DD122F008054A897F
:102F800023F440732A4322F004058A882A438D895A
:102F90001D43CB892B4383800483C98881860284A7
:102FA00030BD0000002C01400034014000400140D1
:102FB0000044014000480140028B22F008020A430D
:102FC0000283704770B5028C22F010020284028CDA
:102FD0008388048B0D8824F4E6464FF6FF7404EAD8
:102FE000052535430E8922F0200204EA0616164311
:102FF0004A8804EA02123243104EB04202D0104E08
:10300000B04215D122F080064A8923F4406304EAD5
:103010000212324322F040068A8804EA0212324346
:103020008E8904EA86061E43CB8904EA8303334370
:1030300083800583C9880187028470BD002C01400C
:1030400000340140028B4FF6FF7322F4006203EA62
:10305000012111430183704770B5028C22F4807204
:103060000284028C8388848B0D8824F073042543AA
:103070000E894FF6FF7422F4007204EA0626164306
:103080004A8804EA02223243104EB04202D0104E67
:10309000B04215D122F400664A8923F4405304EA71
:1030A0000222324322F480668A8804EA02223243F2
:1030B0008E8904EA06161E43CB8904EA03133343C0
:1030C00083808583C9888187028470BD002C01407C
:1030D00000340140828B22F008020A438283704749
:1030E00070B5028C22F480520284058C8288838B16
:1030F0000C8823F4E6464FF6FF7303EA04243443B6
:1031000025F400560D8903EA053535434E8803EA58
:1031100006362E43094DA84202D0094DA84205D1DA
:1031200022F480458A8903EA82122A4382808483BA
:10313000C988A0F84010068470BD0000002C014032
:1031400000340140828B4FF6FF7322F4006203EAE1
:103150000121114381837047818670470187704741
:1031600081877047A0F84010704781847047028BB8
:1031700022F00C020283028B0A4302837047028B07
:1031800022F440620283028B4FF6FF7303EA0121AF
:103190000A4302837047828B22F00C028283828B67
:1031A0000A4382837047828B22F440628283828B3F
:1031B0004FF6FF7303EA01210A4382837047000040
:1031C00030B502881B4C1C4DA0420DD0A8420BD03C
:1031D000B0F1804F08D0194B984205D0184B984257
:1031E00002D0184B984203D122F070034A881A4348
:1031F000154B984206D0154B984203D022F44073E9
:10320000CA881A4302808A8882850A880285A04279
:103210000AD0A84208D00E4A904205D00D4A9042EA
:1032200002D00D4A904201D1097A018601218182A2
:1032300030BD0000002C014000340140000400407B
:1032400000080040000C0040001000400014004046
:103250000040014000440140004801404FF6FF712A
:10326000818000210180C18041800172704700008F
:103270002DE9F041224C40F225552946204600F028
:10328000F2F8002839D0204600F07AF91D49C2B280
:1032900000264B7801271C48032B15D23BB1012B8C
:1032A0000AD0827003204870521E8A701EE0AA2A3B
:1032B0001CD102704F7019E0552A03D142700220D0
:1032C000487013E04E7011E090F802C0ACF1010CB0
:1032D0009C4506DDC2545B1C4B7088781044887096
:1032E00004E08878824201D10F70EBE7294620463E
:1032F000BDE8F041012200F0D5B8BDE8F081000042
:103300000038014099000020E80100202DE9F0413B
:10331000434E40F225573946304600F0A4F80028C5
:103320007BD0304600F02CF93E4C00253E4A2178F7
:10333000C0B2032912D231B1012909D09070032102
:103340002170401E13E0AA2860D11070012003E014
:1033500055285AD150700220207057E093785B1E98
:103360008B4206DD5054491C21706178084460701E
:103370004CE06178884249D1D078112804D01228D5
:103380002DD0132838D040E09088284B40BA00B2A6
:103390001880D18849BA0FFA81FCA3F802C01189BC
:1033A00041F2883249BA09B29980904200DD1A8010
:1033B000B3F900E01E48864500DA1880944500DD28
:1033C0005A80B3F902C0844500DA5880914200DD8A
:1033D0009A80B3F90410814217DA988015E090883A
:1033E000144940BA0880D088134940BA088010892F
:1033F000124940BA088008E0908841BA104801801C
:10340000D18849BA4180FDF789FF25703946304699
:10341000BDE8F041012200F045B8BDE8F0810000B0
:10342000004400409C0000203802002004000020DE
:1034300078ECFFFF580000205A0000205C000020BC
:103440002A0000200029818902D041F4005101E0C6
:1034500021F40051818170470246002012880A42FF
:1034600000D00120704770B501F01F05012600242F
:10347000C1F3421306FA05F2012B0FD0022B0FD035
:10348000838A4FEA11210088134206FA01F600EA06
:10349000060001D000B10124204670BD8389F0E709
:1034A000038AEEE710B5C1F3421301F01F040121B6
:1034B000A140012B07D0022B07D01430002A02684C
:1034C00005D00A4304E00C30F8E71030F6E78A43F1
:1034D000026010BD30B50446008A85B00D464CF63A
:1034E000FF710840E98801432182A0894EF6F3115B
:1034F0000840A9882A8911436A8902431143A1819E
:10350000A08A4FF6FF410840A9890143A18268467D
:10351000FFF706FA1948844201D1039800E00298A7
:10352000A189090400EBC00101EB0010296801D555
:10353000490000E08900B0FBF1F06422B0FBF2F139
:1035400009010B096FF018056B4300EB8300A38999
:103550001D044FF0320306D503EBC000B0FBF2F0C0
:1035600000F0070005E003EB0010B0FBF2F000F004
:103570000F000843208105B030BD00000038014035
:103580008088C0F308007047C1F30801818070474C
:10359000FEE700000FB4054B10B503A9044A0298DA
:1035A00000F054FB10BC5DF814FB0000014E000855
:1035B0000C010020490050EAC12018BF04204A0D28
:1035C00018BF40F0010040F2FF72B2EB515F08BF3C
:1035D00040F00200012808BF052070472DE9F74F91
:1035E000144694B00021C4E902111599079121F005
:1035F0000045C9498D4206DC1599C4E9000117B0A0
:103600000020BDE8F08FC549DFF814A3A9423CDDD6
:103610000799C44E0029C44FC44A1599534619DD71
:10362000FCF767FF554506D0C14AC24BFCF761FF66
:10363000C4E900010AE04FF0D352BE4BFCF759FF3A
:1036400032463B46FCF755FFC4E9000117B00120A4
:10365000BDE8F08FFCF7ACFE554506D0B44AB54B3B
:10366000FCF7A6FEC4E900010AE04FF0D352B14BCB
:10367000FCF79EFE32463B46FCF79AFEC4E9000189
:1036800017B04FF0FF30BDE8F08FAB49A942159954
:1036900078DB21F0004183468846A84AA84BFCF716
:1036A0002EFF0022A74BFCF783FEFDF76CF8099074
:1036B000FDF72BF806460F469C4A5346FCF71FFFC2
:1036C00043465A46FCF718FF80468A46984A994B6B
:1036D00030463946FCF713FF2A0D01250B9242466E
:1036E0005346FCF709FF032DC4E9000139D00B98BC
:1036F000C1F30A51401A05EB45111139814230DA04
:103700009148C346784400EB0510CDF80CA00C900E
:10371000D0E9002330463946FCF7F1FE02460B465D
:103720000491069058460399FCF7E3FE80468A46CA
:1037300002460B4658460399FCF7DBFE049B069AAB
:10374000FCF7D7FE83460C9803913946D0E9022353
:103750003046FCF7D4FE5A46039BFCF7CAFE6D1CAC
:10376000BDE707980028A2BF099817B0BDE8F08F01
:10377000616881F000416160099817B04042BDE87E
:10378000F08FFFE784461598C1F31301C0F30A5088
:10379000A0F2F5304FEA601800F01F06C6F12000D5
:1037A000139000200690079041F4801E05206D467E
:1037B00076B1664A08EB00017A4452F8213002EBF8
:1037C0008101B3404A68139922FA01F1194305E0D7
:1037D0005F4908EB0002794451F82210A1FB0E2743
:1037E000A1FB0C131A449A4234BF0123002303EBBC
:1037F000070A05EB8003D3E901B70F448F4234BFBA
:103800000121002193448B4411B1934502D903E077
:10381000934501D2012100E00021C3E901B75144E1
:1038200045F82010011EA0F10100C1DC0298059F9F
:1038300000F10050800F12900298DDE903568000DD
:10384000FCF763FF834628460D91FDF78AF96FF078
:103850001D02FCF735FFCDE90E013046FDF781F979
:103860006FF03D02FCF72CFF80468A463846FDF794
:1038700078F96FF05D02FCF723FF07464246534696
:103880001191FCF795FDDDE90E23FCF791FD5A46F9
:103890000D9BFCF78DFD00250E465A4628460D9BD4
:1038A000FCF727FEDDE90E23FCF723FE42465346D4
:1038B000FCF71FFE3A46119BFCF71EFEDFF898A0AE
:1038C000244A5346FCF71BFE07468846234A244BEE
:1038D00031462846FCF713FE3A464346FCF768FD9E
:1038E000074688464FF0A842534631462846FCF723
:1038F00006FE3A464346FCF75BFD159A12F0004F70
:1039000004D0129A81F0004152421292C4E900019F
:10391000129817B0BDE8F08FFB21E93F7CD9024037
:10392000FB21F93F7370032E8A19A33B000040541A
:103930003163621A61B4D03DFB21394183C8C96D3E
:10394000305FE43F0000E03F30380000AC3700005B
:103950008E370000182D4454FB21F93D3326A61163
:10396000460B113C2DE9FF4D21F0004807460C465F
:10397000B8F1795F08DAFCF706FF002801BF0020E4
:10398000324904B0BDE8F08D3A4623461046194648
:10399000FCF7B5FD054602462D480E460B460621AE
:1039A000784400F05DF82A463346FCF7A8FDDDE9CF
:1039B000022382468B4638462146FCF7A0FD04468A
:1039C0000F4652465B4628463146FCF798FD224694
:1039D0003B46FCF78EFD07468A464FF0FF322846ED
:1039E0003146FCF76DFE1B4A90450ADA3A465346CB
:1039F000FCF77FFD04B00022BDE8F04D134BFCF74F
:103A00007BBD154A4245A8BFA8F500154FF000043C
:103A1000B8BF124D22462B46FCF76BFD0646884682
:103A200022462B4600200949FCF763FD04460D465B
:103A30003A46534630464146FCF75BFD04B0224609
:103A40002B46BDE8F04DFCF757BD00000000F03FED
:103A50005C3500003333D33F0000E93F0000D23F24
:103A60002DE9F0414F1E00EBC7010446D1E90001EA
:103A700015461E4637F006020DD02A463346FCF79F
:103A80003EFD7F1E04EBC703D3E90023FCF790FC47
:103A900037F00602F1D1022F25D0042F13D0062FC4
:103AA00018BFBDE8F0812A463346FCF728FDD4E96B
:103AB0000A23FCF77DFC2A463346FCF720FDD4E9B7
:103AC0000823FCF775FC2A463346FCF718FDD4E9B9
:103AD0000623FCF76DFC2A463346FCF710FDD4E9BB
:103AE0000423FCF765FC2A463346FCF708FDD4E9BD
:103AF0000223FCF75DFC2A463346FCF700FDD4E9BF
:103B00000023BDE8F041FCF753BC00002DE9FF4D58
:103B1000054621F0004084B00C46B0F1795F0BDA25
:103B20002846FFF747FD042808BF00F071F8284633
:103B300008B02146BDE8F08D2A460B461046FCF73A
:103B4000DEFC06460F462A462346FCF7D8FC804694
:103B500026488A4632463B4605217844FFF780FFD7
:103B600083461098029160B3214A224B4046514649
:103B7000FCF7C5FCCDE900015A4640465146029B80
:103B8000FCF7BDFC82468846DDE906014FF0FF32B6
:103B9000FCF796FD52464346FCF7ABFC32463B46EB
:103BA000FCF7ADFCDDE90623FCF7A3FCDDE900230F
:103BB000FCF79FFC08B02A462346BDE8F04DFCF711
:103BC0009BBC0B465A4630463946FCF798FC084ADF
:103BD000084BFCF7EDFB42465346FCF790FC08B05F
:103BE0002A462346BDE8F04DFCF7E2BBA2340000B4
:103BF000495555555555C5BF0122FCF761BDFCF728
:103C0000D7BB0022134610461146FCF7EABC000061
:103C1000024A00201107FCF753BD000001FDFFFF21
:103C200002E008C8121F08C1002AFAD17047704785
:103C3000002001E001C1121F002AFBD170470000E3
:103C40000149086070470000100100202DE9FF4F76
:103C500089B09B460446002506E025280BD05A462D
:103C60000B999047641C6D1C20780028F5D10DB08D
:103C70002846BDE8F08F0027B8460122474900E0FA
:103C8000074314F8013F203B02FA03F00842F7D142
:103C900020782E2819D114F8010F47F004072A289C
:103CA0000ED06FF02F022078A0F1300109290CD836
:103CB00008EB880102EB410100EB0108641CF2E70C
:103CC0000A98641C50F8048B0A9020780028CED003
:103CD000642808D0692806D075281ED05A460B994A
:103CE00090476D1C58E00A994FF00A0901C90A91E2
:103CF000002802DA40422D2102E0390504D52B21AB
:103D00008DF82010012103E0F90704D02021F7E706
:103D10008A4608AE0DE00021FAE70A994FF00A0939
:103D200001C90A91F7E74946FCF7ACFD303106F8C6
:103D3000011D0028F7D1ADEB060000F1200978073E
:103D400001D44FF00108C84502DDA8EB090000E0EE
:103D500000208046002706E008A85A46C05D0B995F
:103D600090476D1C7F1C5745F6DB04E030205A4617
:103D70000B9990476D1CB8F10001A8F10108F5DC22
:103D800005E016F8010B5A460B9990476D1CB9F1E6
:103D90000001A9F10109F4DC641C65E709280100B0
:103DA0002DE9FE4F80460F460025684601F03AF89F
:103DB00000246FF00F0AE946012658F8240057F84E
:103DC0002410401A00D54042FCF791FC5146FCF704
:103DD000E3FA59F8241011F0FF4F0BD0FCF79EFACC
:103DE0004FF07E51FCF762FA094920F0004088420A
:103DF00005DC07E0074908440749884202D306FA70
:103E000004F00543641C032CD7DB2846BDE8FE8F75
:103E1000295C0F3E666666C19A99D9002DE9F04D7E
:103E20008D4F21F0004A86B005460C46BA452ADB84
:103E3000AAEB070028430AD08848824501DC1AD142
:103E4000CDB106B02846BDE8F04DFFF7D5BE844A97
:103E5000844B2846FCF753FB07460E46824A834BA9
:103E600028462146FCF74BFB06B03A463346BDE8F0
:103E7000F04DFCF79DBA0120FFF7E2FE06B0BDE869
:103E8000F04DFFF7BEBE7A48824542DABAF1795F5B
:103E90000BDA2846FFF78EFB042808BFFFF7B8FEB1
:103EA000284606B02146BDE8F08D2A460B4610464E
:103EB000FCF725FB834602466E480E460B4606215C
:103EC0007844FFF7CDFD5A463346FCF718FB804691
:103ED00069488A465A46334604217844FFF7C0FDB4
:103EE0005A463346FCF70BFB00223B46FCF760FAD0
:103EF00002460B4640465146FCF773FB2A462346D2
:103F0000FCF7FDFA06B02A462346BDE8F04DFCF763
:103F10004FBA284624F0004100223D463B46FCF7BC
:103F2000EBFA4FF0FF32FCF7CBFB06460246534854
:103F30000F460B4606217844FFF792FD32463B467A
:103F4000FCF7DDFACDE900014D4832463B4604213D
:103F50007844FFF785FD32463B46FCF7D0FA002255
:103F60002B46FCF725FA834602913046394602F08B
:103F700009F9804643480D46504517DCDDE900014C
:103F80005A46029BFCF72DFB42462B46FCF7B7FA3C
:103F900042462B46FCF70CFA0122FCF791FB304A13
:103FA000304BFCF7A6FA304A304B4CE04FF0000A99
:103FB00052460B464046FCF7FBF9CDE9031052464A
:103FC0002B4610461946FCF79AFA32463B46FCF758
:103FD00093FADDE90332FCF704FB06460F46DDE900
:103FE00000015A46029BFCF7FCFA8346009101222D
:103FF00030463946FCF764FB194A1A4BFCF77CFA49
:1040000006460F46012240462946FCF759FB5A4610
:10401000009BFCF774FA32463B46FCF76AFA064608
:104020000F46012250462946FCF74AFB0E4DDFF8A9
:1040300058802A464346FCF75FFA32463B46FCF777
:104040005BFA2A464346FCF757FA002CD8BF81F0AA
:10405000004106B0BDE8F08D0000F03F0000F07FA9
:10406000075C143326A6913C182D4454FB21F93FDC
:104070000000E03F542F00006A2F0000DE2E0000F9
:10408000F42E00003333EF3FFB21E93F2DE9F84FD9
:1040900004460D4621F0004000917349814211DC35
:1040A0007249884201DC06D12CB120462946BDE880
:1040B000F84FFFF7A1BD6E48002DCCBF6D496E498A
:1040C000BDE8F88F6D49814211DD6D498142D8BF4D
:1040D0004FF0FF366DDD20462946FFF76BFA0428C6
:1040E00008BFFFF795FD20462946BDE8F88F6549D2
:1040F000654F25F00045814233DD6449814219DD79
:10410000002632464FF0804320462946FCF750F9FE
:1041100080468A46012220462946FCF7D1FA002231
:104120003B46FCF7E6F942465346FCF75AFA04468A
:104130000D463EE001260022BA463B46204629466F
:10414000FCF736F980460F460022534620462946A2
:10415000FCF7CFF942463B46FCF743FA04460D46CE
:1041600027E04B4981421BDDDFF828A1022600220F
:10417000534620462946FCF7C2F900223B46FCF78D
:1041800017F980460F460022534620462946FCF781
:10419000B0F942463B46FCF724FA04460D4608E0D7
:1041A000032622462B4600203B49FCF71AFA044618
:1041B0000D4622462B4610461946FCF7A0F98B46C1
:1041C000824602460B46FCF79AF9074602463348F8
:1041D00088460B4606217844FFF742FC52465B4670
:1041E000FCF78DF982462E488B463A464346052118
:1041F0007844FFF735FC3A464346FCF780F902461F
:104200000B46002E504659460CDAFCF7D1F82246F0
:104210002B46FCF774F901B022462B46BDE8F04F5F
:10422000FCF76AB9FCF7C4F822462B46FCF767F99D
:104230001C4A7A4402EBC603D3E90023FCF759F980
:1042400022462B46FCF755F9174A7A4402EBC6037F
:10425000D3E90023FCF750F9009A002AB8BF81F097
:104260000041BDE8F88F0000000010440000F07F1E
:10427000182D4454FB21F93FFB21F9BF0000DC3F1E
:104280000000203E0000F33F0000F03F0000E63F4A
:10429000008003400000F83F0000F0BFF62C000053
:1042A000B42C0000522C00001A2C00002DE9F04D17
:1042B0009446CCF1000423F000464CEA0404524F2B
:1042C00046EAD4749A46884621F00042BC4206D899
:1042D000454240EA050442EAD474BC4204D9BDE830
:1042E000F04D6246FFF78BBCAAF14055A5F17F6502
:1042F00055EA0C040BD0022404EAAA74434DDFF8FB
:1043000010E144EAD87452EA000B04D00CE0BDE896
:10431000F04DFFF7BBBE002C14BF012CBDE8F08DA3
:10432000022C30D0032C32D056EA0C0B0AD0BE42FD
:1043300020D1BA4209D126F0804622F0804233468D
:10434000114617E000291ADB25E0DFF8C8B0FB446E
:10435000002C04BFDBE90001BDE8F08D012C02BF99
:10436000DBE9000181F00041BDE8F08D022C0AD0AC
:10437000032C0CD0BA4212D1B8F1000F0BDA23484B
:104380002549BDE8F08D28462449BDE8F08D284632
:104390007146BDE8F08D1D482149BDE8F08D921BA6
:1043A00012153C2AC4BF19481D490EDCBAF1000F92
:1043B000BEBF12F13C0F0020014606DB6246FCF74F
:1043C00010F921F00041FFF761FE002C08BFBDE8A5
:1043D000F08D012C04BF81F00041BDE8F08D114A41
:1043E000114B022C07D0FCF784F82A46BDE8F04DAB
:1043F0000A4BFCF77EB8FCF77CF82A46BDE8F04D86
:10440000064BFCF779B800000000F07F182D4454EB
:10441000FB2109C0DE2B0000FB21F9BFFB21094075
:10442000FB21F93F075C143326A6A13C00B5244BC1
:1044300021F0004287B09A42DCBF0022134629DDFA
:10444000204B9A4208D140B94FF00100FFF7F8FB2A
:10445000FFF7D7FB07B000BD03DBFFF7CDFB07B0CD
:1044600000BD02AAFFF7BAF810F0030104BF0DF176
:10447000080C9CE80F000DD0012001290ED0022964
:1044800014D00DF1080C00909CE80F00FFF73EFBE4
:1044900007B000BDFFF766FA07B000BD0DF1080CCC
:1044A00000909CE80F00FFF731FB05E00DF1080CD0
:1044B0009CE80F00FFF756FA07B081F0004100BDFD
:1044C000FB21E93F0000F07F08B560B120208DF8A6
:1044D000000028208DF8010030208DF802003820DF
:1044E0008DF8030004E0A32204216846FBF76DFE6B
:1044F0006A46042140F69E2001F062FD01F02CFA8C
:1045000008BD00003EB5044602208DF80000CA2018
:104510008DF80100E3208DF8020009208DF80300DA
:104520006A460421682001F04BFDA3208DF80000AD
:10453000610609D5C0218DF80110C8218DF802103F
:10454000C2218DF8031005E08DF801008DF80200FE
:104550008DF8030014F4C07F09D0C4218DF8041035
:10456000CC218DF80510C6218DF8061005E08DF8D8
:1045700004008DF805008DF806008DF808008DF810
:1045800007008DF809006A460A2140F6A72001F0CD
:1045900017FDA0074FF0D80503D020208DF80000AC
:1045A00001E08DF800506A46012140F6B62001F086
:1045B00007FDA00601D5012000E0002000F090F8E2
:1045C00014F4C07F1ED0E0050AD5B2208DF800009B
:1045D0008B208DF80100B6208DF802009B2009E0A9
:1045E000B0208DF8000080208DF80100B4208DF8F7
:1045F000020090208DF803006A46042140F6A220B4
:1046000001F0DEFCE0074FF40B6323D0F8208DF8B7
:1046100000006A460121184601F0D2FCFA21072069
:1046200000F03AFB072000F005FB012000F022FB20
:10463000642000F0C5FB4FF4FA7000F0D1FBC821F4
:10464000254800F0BFFA282000F0D4FA0A2000F034
:10465000E1FA06E08DF800506A460121184601F0A3
:10466000AFFCA00703D5D9208DF8000001E08DF83C
:1046700000506A46012140F23D7001F0A1FC600744
:1046800001D5012000E0002000F046F8E00601D549
:10469000012000E00020FFF717FF104D44F0080054
:1046A000688101F059F90020A873600601D5062041
:1046B000A87314F4C07F02D0A87B801DA87314F0E7
:1046C000140F02D0A87B1030A873A00702D0A87BDB
:1046D000001DA87300203EBD09E3CA02B0020020FD
:1046E0000EB54FF4976308B105A000E007A007C816
:1046F0008DE807006A460921184601F061FC0EBDED
:10470000B8AAB38DB4980D355D000000B8AAAAAA66
:10471000B088C3C5C700000008B560B1C0208DF8DF
:104720000000C2208DF80100C4208DF80200C620D0
:104730008DF8030004E08B2204216846FBF745FD59
:104740006A46042140F6982001F03AFC01F004F991
:1047500008BD0000C8234FF48062024940F6F630DD
:1047600000F0DABF206200082DE9FF4F89B016463D
:10477000DDE916520024DFF834810F4681462C8093
:10478000A24698F80E00694601F074F84FF0FF3B1E
:1047900018B158460DB0BDE8F08FB8F80A0010F017
:1047A000140F3CD0009909BA21F0FF0C9DF80310BA
:1047B0004CEA010CC6F800C0019909BA21F0FF03C8
:1047C0009DF807100B43736002999DF80B2009BAFE
:1047D00021F0FF011143B160039A9DF80F4012BA16
:1047E00022F0FF022243F2604FEA2C4609141B1408
:1047F00012147643494303FB036302FB021119447D
:104800001024A1F17061B1F1007F04D901F0A4F886
:10481000A5F800A0BDE7298841F4807129804106F0
:104820006A460ED51119A41D0B885BBA3B804B88D4
:104830005BBA7B80898849BAB980298841F0080130
:10484000298010F4C07F11D01119A41D0B885BBA08
:10485000A9F800304B885BBAA9F80230898849BAB8
:10486000A9F80410298841F070012980800718D028
:104870001444E07800F0C00500F03F016078C00704
:1048800007D0C80801F00701D8F80020491C02B180
:1048900090476078000704D5D8F8041009B1A8093A
:1048A00088470C9801F0B6FB002073E7B0020020A7
:1048B0002DE9FF41044603A800F0E4FDBDF80C001B
:1048C000420CC3032F48018901F003004D0754F83F
:1048D000200000D54042C1F3C1058E0654F8255092
:1048E00000D56D42C1F38116C90554F8264000D5A4
:1048F0006442A0FB0367C11701FB037100FB0210B8
:10490000810041EA9670A5FB0367E91701FB03717B
:1049100005FB02118D0045EA9671A4FB0367E517BC
:1049200005FB037304FB0232930043EA9672030E05
:104930008DF80030030C8DF80130030A8DF8023039
:104940008DF80300080E8DF80400080C8DF80500A2
:10495000080A8DF80600100E8DF80800100C8DF86E
:104960000900100A8DF80A008DF807108DF80B2049
:104970006A460C214FF4257001F022FB04B0BDE81B
:10498000F0810000B002002030B5044613A185B0CC
:1049900007C98DE807004FF0FF35C82C16D8C8208E
:1049A000B0FBF4F1491E080A8DF80C008DF80D10CB
:1049B00003AA022140F2162001F002FB30B96A4638
:1049C0000C2140F6C12001F0FBFA10B1284605B0D9
:1049D00030BD054884810020F9E70000FEF2ABC439
:1049E000AAF1DFDFBBAFDFDFB0020020F8B530494E
:1049F000098901F0030250F822404A0700D56442B9
:104A0000C1F3C10250F822308A0600D55B42C1F3DF
:104A1000811250F82220C80500D55242254984FB56
:104A20000140850045EA947083FB014382FB01212C
:104A3000950F45EA8105010E8DF80010010C8DF8E7
:104A40000110010A8DF80210A40F8DF8030044EA4A
:104A500083046A4604214FF4747001F0B1FA4FF0F8
:104A6000FF3688B9200E8DF80000200C8DF801006B
:104A7000200A8DF802008DF803406A4604214FF4A5
:104A8000757001F09DFA08B13046F8BD280E8DF81A
:104A90000000280C8DF80100280A8DF802008DF81E
:104AA00003506A4604214FF4767001F089FAF8BD8C
:104AB000B002002009E3CA022DE9FF4104463CA0F0
:104AC00002AB006802903BA0006803903AA0066821
:104AD0003AA0056804F00300195C8DF80010C4F3D7
:104AE000C1015A5C8DF80120C4F381129B5C8DF8E2
:104AF000023003AB185C8DF80400585C8DF805009B
:104B0000985C8DF806006A46032140F2264001F0C9
:104B100057FA4FF0FF37E0BB01AA032140F22A40C9
:104B200001F04EFAA8BBCDE9006560070BD59DF8F2
:104B3000000040F001008DF800009DF8040040F0F6
:104B400001008DF80400A0060BD59DF8010040F08F
:104B500001008DF801009DF8050040F001008DF87E
:104B60000500E0050BD59DF8020040F001008DF82E
:104B700002009DF8060040F001008DF806006A462C
:104B800003214FF4886001F01BFA10B901AA032138
:104B900000E004E040F2314001F012FA18B138466A
:104BA00004B0BDE8F081064804810020F8E7000069
:104BB0004CCD6C000CC92C0036567600264666009B
:104BC000B00200204FF47A7290FBF2F008B548432F
:104BD000010E8DF80010010C8DF80110010A8DF8FE
:104BE00002108DF803006A4604214FF4AE7001F004
:104BF000E7F908BD0521B0FBF1F008B5010A8DF811
:104C000000108DF801006A4602214FF4AD7001F0EA
:104C1000D7F908BD0521B0FBF1F008B5010A8DF800
:104C200000108DF801006A4602214FF4AC7001F0CB
:104C3000C7F908BD08B500218DF80010C10702D0E2
:104C400030218DF80010810705D59DF8001041F046
:104C50000C018DF80010400705D59DF8000040F0CC
:104C600003008DF800006A4601214FF4A47001F0A2
:104C7000A7F908BD08B560B1042800D90420401E7A
:104C80008DF800006A46012140F24F1001F098F9BA
:104C900008BD0120F3E700002DE9FC41054640076F
:104CA0004FF0FF367CD0B1F5C86F79D80846FBF7D6
:104CB00027FD3E49FBF732FB074601A800F0C4FB85
:104CC0009DF80400022806D004280DD008282ED014
:104CD000102865D134E00E213846FBF75DFBFBF769
:104CE0003EFD84B2324907E00D213846FBF754FB04
:104CF000FBF735FD2F4984B23846FBF7DDFAFBF7A9
:104D00002EFD210A8DF8001080B28DF80140010AB5
:104D10008DF802108DF80300E8076C4620D022467B
:104D200002214FF4EA7001F04BF9C8BB11E00C21ED
:104D30003846FBF731FBFBF712FD84B21E49DBE777
:104D40000B213846FBF728FBFBF709FD84B21B4912
:104D5000D2E7A21C02214FF4927001F031F9F8B9A8
:104D6000A8070DD56A4602214FF4EC7001F028F92E
:104D7000B0B9A21C02214FF4947001F021F978B966
:104D8000680710D56A4602214FF4EE7001F018F959
:104D900030B9A21C02214FF4967001F011F910B144
:104DA0003046BDE8FC810020FBE7000000004843DE
:104DB000000040460000C045000040450000C044DF
:104DC0000521B0FBF1F008B5010A8DF800108DF84F
:104DD00001006A4602214FF4EF7001F0F1F808BDBE
:104DE0000521B0FBF1F008B5010A8DF800108DF82F
:104DF00001006A4602214FF4ED7001F0E1F808BDB0
:104E000070B5074D0446C1B22846FEF7BDFB4021F0
:104E10002846FEF721FB0028F9D0204670BD00008F
:104E2000003801402DE9FC47054625486B46042221
:104E300040680D210078FDF78FFC10B10720BDE818
:104E4000FC879DF800001C2101EAD0029DF80300B8
:104E5000DFF87090C0F301131A438DF804209DF819
:104E60000120C0F3810301EAD2021A438DF8052024
:104E70009DF8022000F0030001EAD2010143002462
:104E8000114F8DF80610A04601AE305D10B145F807
:104E9000249009E045F824800CE055F824003946B8
:104EA000FBF70AFA45F82400305D401E10F0FF00C1
:104EB0003055F2D1641CE4B2032CE6D30020BEE7E7
:104EC000CC0000207B14AE3E1D5A843F2DE9FE4FDE
:104ED00005460120C14E8DF800004FF000088DF806
:104EE000018030680C461746817C70686B46022250
:104EF0000078FDF768FC4FF0FF3A00287AD1C8200F
:104F0000FBF7D4FE8DF8008030686B460122C17B30
:104F100070680078FDF757FC0028EFD130686B46C9
:104F20000122417970680078FDF74DFC0028E5D139
:104F300030686B460122817C70680078FDF743FC85
:104F40000028DBD130686B460122C17D7068007893
:104F5000FDF739FC0028D1D130686B460122017978
:104F600070680078FDF72FFC0028C7D14FF00C09BE
:104F70008DF8009030686B460122017970680078E6
:104F8000FDF721FC002835D10F20FBF78FFEB06A1A
:104F90006B460122407A8DF8000030688178706895
:104FA0000078FDF710FC002824D1B06A6B4601227E
:104FB000007A8DF800003068417870680078FDF75D
:104FC00002FC002873D1B06A807A0FB140F0E00093
:104FD0008DF8000030686B46012281797068007896
:104FE000FDF7F1FB002862D12FB1B06AC07A40F022
:104FF000E00001E04AE018208DF8000030686B46C0
:105000000122C17970680078FDF7DDFBF0BB17B1B4
:10501000C820FBF74BFE40208DF8000030686B463F
:105020000122017970680078FDF7CDFB70BB782014
:105030008DF8000030686B46012241797068007875
:10504000FDF7C1FB10BB3220FBF730FE8DF800806E
:10505000306847466B464179706801220078FDF759
:10506000B2FB98B931687068B046897A00786B46AF
:105070000222FDF771FB48B9BDF80000AF6040BAED
:10508000B0FBF9F06F60C6B22F6000E00FE0A760E0
:1050900067602760002739E0D8F80010D8F80400CE
:1050A0006B46C97A00780C22FDF756FB10B15046CA
:1050B000BDE8FE8FBDF80000236840BA02B2BDF81B
:1050C00002001A4440BA01B2BDF8040022606268CE
:1050D00040BA11446160A16800B20844A060BDF804
:1050E00006002B6840BA02B2BDF808001A4440BA64
:1050F00001B2BDF80A002A606A6840BA11446960CA
:10510000A96800B208447F1CFFB2A860B742C3D3AD
:1051100028688322C117090441EA104100040023D2
:10512000FBF722F832460023FBF71EF82860686878
:105130008322C117090441EA104100040023FBF750
:1051400013F832460023FBF70FF86860A868832243
:10515000C117090441EA104100040023FBF704F8D9
:1051600032460023FBF700F8A86020684FF4006582
:10517000C117090441EA104100042A460023FAF746
:10518000F3FF32460023FAF7EFFF206060682A46FB
:10519000C117090441EA104100040023FAF7E4FFB3
:1051A00032460023FAF7E0FF6060A0682A46C11784
:1051B000090441EA104100040023FAF7D5FF324602
:1051C0000023FAF7D1FFA060002802DDA0F58030AF
:1051D00001E000F58030A060002069E7CC000020ED
:1051E0002DE9F84F82462F488946002540686B46D6
:1051F000032200780D21FDF7AFFA10B10720BDE8BA
:10520000F88F9DF80000002400F01F008DF80000CA
:105210009DF801006F4600F01F008DF801009DF819
:1052200002004FF0010800F01F008DF802005AF84C
:10523000241059F82400081A00D54042FBF757FA09
:105240006FF00F01FBF7A8F80646385DE0B1164A8B
:10525000DFF858B004E059461046FBF72DF8024637
:10526000385D401E10F0FF003855F4D1114630462D
:10527000FBF754F84FF07E51FBF718F80C4920F07B
:105280000040884205DC07E00A483044B0F1D97F8D
:1052900002D908FA04F00543641C032CC7DB284636
:1052A000ADE70000CC0000200000C84154E3853F7A
:1052B000295C0F3E0000E0BE90F90010002902DDDD
:1052C0004FF00000704702DA4FF00400704790F989
:1052D0000110002902DD4FF00100704702DA4FF0A3
:1052E0000500704790F90200002802DD4FF002002F
:1052F000704702DA4FF0060070474FF00700704722
:1053000001244FF4A060FDF7C5FA0A20FCF7CEF99E
:10531000FBF7C8FC0220FBF75DFE0120FBF75AFEFD
:10532000FCF7D0F8FDF72AF84FF4E1352846FCF7F2
:105330002BFF2846FCF77CFF4EF660252846FBF73E
:10534000E9FC2846FBF746FD2846FBF79FFD28466B
:10535000FBF7F2FD6D102846FBF732FD2846FBF700
:1053600089FD2846FBF7DCFD2846FBF72DFE1D4D89
:1053700004212846FDF7E5F81B4F26023146384642
:10538000FDF7DFF86420FBF791FC04212846FDF7C8
:10539000DAF831463846FDF7D6F84FF49670FBF749
:1053A00085FCFCF7E5FBFCF70BFB42F21070FCF709
:1053B000B7FE0120FCF7A4FE31463846FDF7C1F8E0
:1053C000FCF792FE0028FBD00848FCF707FAE0073C
:1053D00005D1FCF795FDFCF74DFDFCF703FE641CC1
:1053E000E4B2EDE700140140000801405C01002038
:1053F0002DE9F041134D20F00104002695F824001A
:1054000010B10020BDE8F081A87A4FF0FF3838B124
:1054100020402F7C2874A04200D0464624B901E0E9
:105420004046EFE7287D40B1012000F031FE3CB15D
:1054300000F092FA20B12F74F2E7002000F028FE6D
:105440003046DFE7CC0000200D4A517A41B10129F6
:1054500008D002290FD003290FD04FF0FF3070473A
:10546000022100E004210170D17C11B101784900D2
:105470000170002070470821F5E71021F3E70000D4
:10548000CC0000200F4A517A41B1012909D00229EC
:1054900011D0032912D04FF0FF3070474FF48041F4
:1054A00001E041F69C710180D17C11B1018849086D
:1054B0000180002070474FF48051F4E74FF4006101
:1054C000F1E70000CC0000200B49097A39B101292D
:1054D00007D002290AD003290BD0002103E0FA21CA
:1054E00001E04FF4FA710180002070474FF47A71A7
:1054F000F9E74FF4FA61F6E7CC0000200A49097A8F
:1055000041B1012908D002290AD003290AD04FF05D
:10551000FF307047054900E00549016000207047F1
:105520000449FAE70449F8E7CC00002000000343EF
:105530000000834233330342333383410C49C97A39
:10554000072913D2DFE801F01204060A0C0E10003E
:10555000BC2100E062210180002070472A21FAE787
:105560001421F8E70A21F6E70521F4E70021F2E724
:10557000CC000020054991F8242012B14FF0FF30F3
:105580007047C9890180002070470000CC000020CE
:105590002DE9FC414C4C80208DF8000020686B46C2
:1055A0000122817C60680078FDF70DF94FF0FF372C
:1055B000002832D16420FBF779FB00258DF80050DC
:1055C00020686B460122817C60680078FDF7FBF85B
:1055D000002870D120686B460622817D60680078C3
:1055E000FDF7BAF8002866D19DF805009DF8031074
:1055F000C007400F01F0010140EA41019DF80100A0
:105600004FF0010600F00100014309D0012905D047
:10561000022915D02DA0FDF7BDFF4CE0E67410E087
:1056200020686B460122C17860680078FDF794F825
:1056300040BB9DF8000010F00F0020D0042822D0BD
:10564000E574FF2004F80A0F4FF6FF7104F8020C0E
:1056500004F8010C6070A180A0712072A6702676FB
:105660006576E572A572E56025616561A576E576EA
:10567000A5834FF4FA6000F06DFB18B907E01D48F0
:10568000FDF788FF17E01CA0FDF784FFC6E70220A6
:1056900000F082FA78B92A2000F0C4FB58B9322011
:1056A00000F0F6FB38B90020FFF7A2FE18B9002081
:1056B00000F0A6FA10B13846BDE8FC81002000F0E9
:1056C00023FC0020F8E70000CC000020556E737525
:1056D00070706F7274656420736F66747761726541
:1056E0002070726F64756374207265762025642E55
:1056F0000A0000002870000848616C662073656E1F
:105700007369746976697479207061727420666F48
:10571000756E642E0D0A00002DE9FF4FDFF898A08A
:10572000054685B09AF82500914688464FF0FF3B24
:10573000C0BBB8F1000F35D000241FE0281B102893
:1057400000DD102086B208EB04073A4631462046B9
:1057500000F036FC30BB6A463146204600F0D2F8F5
:1057600000BB384632466946FAF741FD20B16FF07A
:10577000010009B0BDE8F08FA01984B2AC42DDD3BE
:105780004FEA19208DF810008DF81190DAF800001A
:10579000544604AB817EDAF8040002220078FDF75B
:1057A00012F808B15846E4E7012084F8250008986B
:1057B000E0840020DDE70000CC0000202DE9F84364
:1057C00004464FF0FF39282844D80727284D0026E3
:1057D0007CB1012000F0F4FA20208DF800004FF099
:1057E0000108012C17D0052C18D88DF80180052050
:1057F0001FE0002000F0E4FA8DF800608DF80170E1
:1058000028686B460222817C68680078FCF7DBFF21
:1058100000BB2E7529E08DF80160E8E7142C04D850
:1058200002208DF801000A2003E003208DF801001A
:10583000142000F0F7FA9DF801006B4607EB80108A
:105840008DF8010028680222817C68680078FCF7E6
:10585000BAFF10B14846BDE8F8830820A8722E733D
:1058600085F814800020FFF7C3FD0020F3E7000057
:10587000CC0000202DE9F843214E0546174696F846
:10588000240089464FF0FF3890B3B07A80B3306877
:105890006B460222817A70680078FCF75DFF38BBA6
:1058A000BDF8000044BAAC4202D2002038701FE0BC
:1058B00070684188B4EB510F11D9316800786B469C
:1058C000497C0122FCF748FF90B99DF80000C00612
:1058D00005D500F041F86FF00100BDE8F8833068AD
:1058E000EAB24B46C17A70680078FCF735FF08B120
:1058F0004046F2E7B4FBF5F0401E38700020ECE7BC
:10590000CC000020F8B517000D464FF0FF341FD033
:10591000104EB17AE1B1010A8DF80010C0B28DF8D5
:105920000100411970684289914211D831680078AC
:105930006B46097E0222FCF746FF48B93068EAB29E
:105940003B46417D70680078FCF706FF002800D0D8
:105950002046F8BDCC000020F8B5524D4FF0FF3680
:10596000A87A00287CD000248DF8004028686B4677
:105970000122C17B68680078FCF725FF00286FD101
:1059800028686B460122417968680078FCF71BFFA4
:10599000002865D128686B46012201796868007883
:1059A000FCF711FF00287AD195F82400C8B30C2029
:1059B0008DF8000028686B4601220179686800783C
:1059C000FCF701FF00286AD1C0208DF80000A87AFA
:1059D000C00702D0E0208DF8000028686B46012245
:1059E000017968680078FCF7EEFE002857D1687CE2
:1059F00018B102208DF8000001E08DF80040286801
:105A00006B460122C17B68680078FCF7DCFE38BB7E
:105A10008DF8004028686B4601224179686800785B
:105A200039E0FFE704208DF8000028686B4601226A
:105A3000017968680078FCF7C6FE88B9A87C80B94F
:105A4000A87AC0070DD060208DF8000028686B464A
:105A50000122017968680078FCF7B5FE00B902E020
:105A60001DE04020F0E7687C18B101208DF80000AF
:105A700001E08DF8004028686B460122C17B686810
:105A80000078FCF7A0FE50B92868064B0122417946
:105A9000686810330078FCF796FE002800D0304686
:105AA000F8BD0000CC0000202DE9F047394E8246B9
:105AB0008AB096F824000F4620B1002000F00EF9BD
:105AC000012500E0002507A8FFF7FEFC06A8FFF768
:105AD000BBFC09A8FFF732FD08A8FFF74BFD96F8BD
